:100000000C942A000C9434000C9434000C943400AA
:100010000C9434000C9434000C9434000C94340090
:100020000C9434000C9434000C9434000C94340080
:100030000C9434000C9434000C9434000C94340070
:100040000C9434000C9434000C9434000C94340060
:100050000C94340011241FBECFE5D8E0DEBFCDBF25
:100060000E949D020C94B9020C9400004130B1F53D
:10007000813099F0813030F08230D1F0833009F056
:1000800067C021C02AB381E090E002C0880F991FA9
:100090006A95E2F7282B2ABB089527B381E090E008
:1000A00002C0880F991F6A95E2F7282B27BB089595
:1000B00024B381E090E002C0880F991F6A95E2F7AF
:1000C000282B24BB089521B381E090E002C0880F63
:1000D000991F6A95E2F7282B21BB08954423C1F5A7
:1000E000813099F0813028F08230D9F0833081F569
:1000F00024C02AB381E090E002C0880F991F6A955E
:10010000E2F7809582238ABB089527B381E090E0CF
:1001100002C0880F991F6A95E2F78095822387BBFA
:10012000089524B381E090E002C0880F991F6A957A
:10013000E2F78095822384BB089521B381E090E0AB
:1001400002C0880F991F6A95E2F78095822381BBD0
:1001500008954130B1F5813099F0813030F082302E
:10016000D1F0833009F067C021C02BB381E090E06B
:1001700002C0880F991F6A95E2F7282B2BBB0895C0
:1001800028B381E090E002C0880F991F6A95E2F7DA
:10019000282B28BB089525B381E090E002C0880F8A
:1001A000991F6A95E2F7282B25BB089522B381E0B9
:1001B00090E002C0880F991F6A95E2F7282B22BBB6
:1001C00008954423C1F5813099F0813028F08230C0
:1001D000D9F0833081F524C02BB381E090E002C0D8
:1001E000880F991F6A95E2F7809582238BBB08954B
:1001F00028B381E090E002C0880F991F6A95E2F76A
:100200008095822388BB089525B381E090E002C0E9
:10021000880F991F6A95E2F78095822385BB089520
:1002200022B381E090E002C0880F991F6A95E2F73F
:100230008095822382BB0895813051F0813030F067
:10024000823041F0833079F080E0089589B303C0B3
:1002500086B301C083B390E002C0959587956A95F7
:10026000E2F78170089580B390E002C0959587957C
:100270006A95E2F7817008956130A9F4813051F0F8
:10028000813028F0823049F08330F9F409C08FEFD3
:100290008ABB08958FEF87BB08958FEF84BB0895C5
:1002A0008FEF81BB0895662381F4813049F081305E
:1002B00028F0823039F0833041F406C01ABA08952C
:1002C00017BA089514BA089511BA0895813049F003
:1002D000813028F0823039F0833041F406C06BBBA6
:1002E000089568BB089565BB089562BB0895813089
:1002F00091F0813028F08230C9F0833061F521C05F
:100300002BB381E090E002C0880F991F6A95E2F755
:1003100028272BBB089528B381E090E002C0880F06
:10032000991F6A95E2F7282728BB089525B381E035
:1003300090E002C0880F991F6A95E2F7282725BB35
:10034000089522B381E090E002C0880F991F6A955A
:10035000E2F7282722BB0895813051F0813030F038
:10036000823041F0833041F080E0089589B30895F0
:1003700086B3089583B3089580B308950E945B0205
:1003800008950E942D0208950E94C70108950898BB
:10039000099886B78E7F86BF86B7806486BF80E265
:1003A00080B986B7846086BF0895880F82B986B702
:1003B000806486BF86B7846086BF089586B7846AE6
:1003C00086BF06B607FEFDCF089587E086BF86B7D5
:1003D000846A86BF06B607FEFDCF0895880F83B9ED
:1003E000613041F4189A86B7846886BF06B607FE66
:1003F000FDCF0895189886B7846886BF06B607FEB5
:10040000FDCF0895823018F086B7846C02C086B79D
:10041000846886BF06B607FEFDCF83B1089586B710
:10042000877086BF86B7846C86BF06B607FEFDCF91
:1004300083B1089586B7846886BF06B607FEFDCFF0
:1004400083B1089596B7977096BF83B986B78468CD
:1004500086BF06B607FEFDCF08950F931F93982F12
:10046000162F042F86B7846A86BF06B607FEFDCF17
:10047000892F880F0E942202812F0E942202802F42
:100480000E94220286B7846886BF06B607FEFDCFAB
:1004900086B7846986BF06B604FCFDCF85E01F9150
:1004A0000F91089581B1089586B7846986BF06B615
:1004B00004FCFDCF0895FF920F93082FF62E86B708
:1004C000846A86BF06B607FEFDCF82E592E08830DB
:1004D000910511F0982F29C0802F880F0E942202C9
:1004E00080E395E70197F1F78F2D0E94220280E3C8
:1004F00095E70197F1F787E086BF86B7846A86BFE4
:1005000006B607FEFDCF000F802F81600E942202F9
:1005100086B7846886BF06B607FEFDCF93B186B75F
:10052000846986BF06B604FCFDCF892F0F91FF902A
:10053000089506B607FEFDCF089580E061E00E94B1
:100540003C0183E061E00E943C010E94C40180E51F
:1005500068E047E00E94C101682F83E00E946601C5
:1005600080E568E00E94BE01682F80E00E9466017D
:06057000FFCFF894FFCF5D
:00000001FF
