:100000000C942A000C943C000C943C000C943C0092
:100010000C943C000C94C7060C940B070C94A0079E
:100020000C943C000C9483070C9486060C944206B6
:100030000C943C000C943C000C943C000C943C0050
:100040000C943C000C943C000C943C000C943C0040
:100050000C943C0011241FBECFE5D8E0DEBFCDBF1D
:1000600010E0A0E6B0E001C01D92AB38B107E1F7A7
:100070000E94FD070C9441080C940000DF93CF937D
:10008000CDB7DEB727970FB6F894DEBF0FBECDBF52
:1000900089836A834B838B81813009F06FC08981AA
:1000A000282F30E03F832E838E819F818130910500
:1000B00049F12E813F81223031052CF48E819F81C0
:1000C000009761F0D2C02E813F812230310571F15D
:1000D0008E819F8183309105E9F1C7C0AAE3B0E02A
:1000E000EAE3F0E08081482F8A81282F30E081E028
:1000F00090E0022E02C0880F991F0A94E2F7842B29
:100100008C93B3C0A7E3B0E0E7E3F0E08081482F31
:100110008A81282F30E081E090E0022E02C0880F13
:10012000991F0A94E2F7842B8C939FC0A4E3B0E05C
:10013000E4E3F0E08081482F8A81282F30E081E0DD
:1001400090E0022E02C0880F991F0A94E2F7842BD8
:100150008C938BC0A1E3B0E0E1E3F0E08081482F15
:100160008A81282F30E081E090E0022E02C0880FC3
:10017000991F0A94E2F7842B8C9377C08B81882394
:1001800009F073C08981282F30E03D832C838C8156
:100190009D818130910559F12C813D8122303105BD
:1001A0002CF48C819D81009769F05FC02C813D818A
:1001B0002230310589F18C819D818330910509F4CC
:1001C00040C053C0AAE3B0E0EAE3F0E08081482FEA
:1001D0008A81282F30E081E090E0022E02C0880F53
:1001E000991F0A94E2F7809584238C933EC0A7E37D
:1001F000B0E0E7E3F0E08081482F8A81282F30E0EB
:1002000081E090E0022E02C0880F991F0A94E2F765
:10021000809584238C9329C0A4E3B0E0E4E3F0E06C
:100220008081482F8A81282F30E081E090E0022EE3
:1002300002C0880F991F0A94E2F7809584238C935B
:1002400014C0A1E3B0E0E1E3F0E08081482F8A81AF
:10025000282F30E081E090E0022E02C0880F991F25
:100260000A94E2F7809584238C9327960FB6F8942E
:10027000DEBF0FBECDBFCF91DF910895DF93CF9347
:10028000CDB7DEB727970FB6F894DEBF0FBECDBF50
:1002900089836A834B838B81813009F06FC08981A8
:1002A000282F30E03F832E838E819F8181309105FE
:1002B00049F12E813F81223031052CF48E819F81BE
:1002C000009761F0D2C02E813F812230310571F15B
:1002D0008E819F8183309105E9F1C7C0ABE3B0E027
:1002E000EBE3F0E08081482F8A81282F30E081E025
:1002F00090E0022E02C0880F991F0A94E2F7842B27
:100300008C93B3C0A8E3B0E0E8E3F0E08081482F2D
:100310008A81282F30E081E090E0022E02C0880F11
:10032000991F0A94E2F7842B8C939FC0A5E3B0E059
:10033000E5E3F0E08081482F8A81282F30E081E0DA
:1003400090E0022E02C0880F991F0A94E2F7842BD6
:100350008C938BC0A2E3B0E0E2E3F0E08081482F11
:100360008A81282F30E081E090E0022E02C0880FC1
:10037000991F0A94E2F7842B8C9377C08B81882392
:1003800009F073C08981282F30E03D832C838C8154
:100390009D818130910559F12C813D8122303105BB
:1003A0002CF48C819D81009769F05FC02C813D8188
:1003B0002230310589F18C819D818330910509F4CA
:1003C00040C053C0ABE3B0E0EBE3F0E08081482FE6
:1003D0008A81282F30E081E090E0022E02C0880F51
:1003E000991F0A94E2F7809584238C933EC0A8E37A
:1003F000B0E0E8E3F0E08081482F8A81282F30E0E8
:1004000081E090E0022E02C0880F991F0A94E2F763
:10041000809584238C9329C0A5E3B0E0E5E3F0E068
:100420008081482F8A81282F30E081E090E0022EE1
:1004300002C0880F991F0A94E2F7809584238C9359
:1004400014C0A2E3B0E0E2E3F0E08081482F8A81AB
:10045000282F30E081E090E0022E02C0880F991F23
:100460000A94E2F7809584238C9327960FB6F8942C
:10047000DEBF0FBECDBFCF91DF910895DF93CF9345
:1004800000D000D00F92CDB7DEB78A836B8319827C
:100490008A81282F30E03D832C834C815D8141305F
:1004A000510541F18C819D818230910534F42C817C
:1004B0003D812115310561F052C04C815D81423092
:1004C000510551F18C819D8183309105B9F147C06F
:1004D000E9E3F0E08081282F30E08B81882F90E0E5
:1004E000A90102C0559547958A95E2F7CA01817026
:1004F000898335C0E6E3F0E08081282F30E08B81EE
:10050000882F90E0A90102C0559547958A95E2F79A
:10051000CA018170898323C0E3E3F0E08081282F42
:1005200030E08B81882F90E0A90102C05595479556
:100530008A95E2F7CA018170898311C0E0E3F0E097
:100540008081282F30E08B81882F90E0A90102C0A4
:10055000559547958A95E2F7CA018170898389810B
:100560000F900F900F900F900F90CF91DF91089503
:10057000DF93CF9300D000D000D0CDB7DEB7898312
:100580006A838A81813099F58981282F30E03E8302
:100590002D838D819E8181309105D1F02D813E8109
:1005A000223031052CF48D819E81009761F050C07E
:1005B0002D813E812230310581F08D819E818330F5
:1005C000910581F045C0EAE3F0E08FEF808340C001
:1005D000E7E3F0E08FEF80833BC0E4E3F0E08FEFF0
:1005E000808336C0E1E3F0E08FEF808331C08A8101
:1005F000882371F58981282F30E03C832B838B8100
:100600009C8181309105C9F02B813C8122303105DC
:100610002CF48B819C81009761F01AC02B813C8166
:100620002230310571F08B819C818330910569F016
:100630000FC0EAE3F0E010820BC0E7E3F0E01082C5
:1006400007C0E4E3F0E0108203C0E1E3F0E01082D1
:1006500026960FB6F894DEBF0FBECDBFCF91DF91C7
:100660000895DF93CF9300D000D0CDB7DEB7898354
:100670006A838981282F30E03C832B838B819C8186
:1006800081309105D1F02B813C81223031052CF451
:100690008B819C81009761F01EC02B813C812230B0
:1006A000310581F08B819C818330910581F013C0ED
:1006B000EBE3F0E08A8180830EC0E8E3F0E08A811A
:1006C000808309C0E5E3F0E08A81808304C0E2E32F
:1006D000F0E08A8180830F900F900F900F90CF9160
:1006E000DF910895DF93CF9300D000D0CDB7DEB770
:1006F00089836A838981282F30E03C832B838B8117
:100700009C818130910549F12B813C81223031055A
:100710002CF48B819C81009761F05AC02B813C8125
:100720002230310571F18B819C8183309105E9F193
:100730004FC0ABE3B0E0EBE3F0E08081482F8A816B
:10074000282F30E081E090E0022E02C0880F991F30
:100750000A94E2F784278C933BC0A8E3B0E0E8E377
:10076000F0E08081482F8A81282F30E081E090E0FE
:10077000022E02C0880F991F0A94E2F784278C93F7
:1007800027C0A5E3B0E0E5E3F0E08081482F8A814F
:10079000282F30E081E090E0022E02C0880F991FE0
:1007A0000A94E2F784278C9313C0A2E3B0E0E2E35B
:1007B000F0E08081482F8A81282F30E081E090E0AE
:1007C000022E02C0880F991F0A94E2F784278C93A7
:1007D0000F900F900F900F90CF91DF910895DF93BE
:1007E000CF9300D000D0CDB7DEB78A8319828A813B
:1007F000282F30E03C832B838B819C8181309105B5
:10080000D1F02B813C81223031052CF48B819C81ED
:10081000009761F01EC02B813C812230310581F0B0
:100820008B819C818330910581F013C0E9E3F0E076
:10083000808189830EC0E6E3F0E08081898309C06E
:10084000E3E3F0E08081898304C0E0E3F0E08081AD
:10085000898389810F900F900F900F90CF91DF9136
:100860000895DF93CF93CDB7DEB78EED94E00E946D
:1008700093050E94A505CF91DF9108950F93DF9313
:10088000CF9300D000D000D0CDB7DEB789837B8373
:100890006A834C832D830E838C81282F30E0C9011D
:1008A000880F991F880F991F820F931FFC01EE5923
:1008B000FF4F898180838C81282F30E0C901880F08
:1008C000991F880F991F820F931FFC01E05AFF4F59
:1008D0008A819B81918380838C81282F30E0C9019C
:1008E000880F991F880F991F820F931FFC01ED59E4
:1008F000FF4F8D8180838C81282F30E0C901880FC4
:10090000991F880F991F820F931FFC01EC59FF4F0D
:100910008E81808326960FB6F894DEBF0FBECDBFC2
:10092000CF91DF910F910895DF93CF930F92CDB7C1
:10093000DEB789838981282F30E0C901880F991F8C
:10094000880F991F820F931FFC01ED59FF4F1082F2
:100950000F90CF91DF910895DF93CF930F92CDB792
:10096000DEB789838981282F30E0C901880F991F5C
:10097000880F991F820F931FFC01ED59FF4F81E0F3
:1009800080830F90CF91DF910895DF93CF930F92E3
:10099000CDB7DEB789838981282F30E0C901880F60
:1009A000991F880F991F820F931FFC01E05AFF4F78
:1009B000118210820F90CF91DF910895DF93CF9332
:1009C0000F92CDB7DEB780917400909175000196BB
:1009D000909375008093740019829DC08981282F9F
:1009E00030E0C901880F991F880F991F820F931F4C
:1009F000FC01EC59FF4F8081882309F06EC089818A
:100A0000282F30E0C901880F991F880F991F820F86
:100A1000931FFC01E05AFF4F80819181009709F4F8
:100A200077C040917400509175008981282F30E083
:100A3000C901880F991F880F991F820F931FFC010E
:100A4000EE59FF4F8081282F30E0CA01B9010E9482
:100A50002D08009709F05CC08981282F30E0C9017A
:100A6000880F991F880F991F820F931FFC01ED5962
:100A7000FF4F8081813009F04BC08981282F30E001
:100A8000C901880F991F880F991F820F931FFC01BE
:100A9000E05AFF4F0190F081E02D09958981482FA0
:100AA00050E08981282F30E0C901880F991F880FF5
:100AB000991F820F931FFC01EE59FF4F8081282F51
:100AC0002150CA01880F991F880F991F840F951F05
:100AD000FC01EC59FF4F20831BC08981282F30E097
:100AE000C901880F991F880F991F820F931FFC015E
:100AF000EC59FF4F8081482F4150C901880F991F41
:100B0000880F991F820F931FFC01EC59FF4F408300
:100B100089818F5F89838981843008F45FCF0F904A
:100B2000CF91DF910895DF93CF9300D0CDB7DEB79B
:100B30009A83898389819A8190937A00809379003E
:100B40000F900F90CF91DF910895DF93CF93CDB7A2
:100B5000DEB7AEE4B0E0EEE4F0E0808191819E7F0C
:100B600011969C938E93AEE4B0E0EEE4F0E08081C9
:100B700091819D7F11969C938E93AEE4B0E0EEE45C
:100B8000F0E080819181886011969C938E93AEE411
:100B9000B0E0EEE4F0E0808191818F7E11969C932D
:100BA0008E93EAE4F0E082E19AE791838083A9E5FD
:100BB000B0E0E9E5F0E0808180618C93AEE4B0E0E4
:100BC000EEE4F0E0808191818E7F11969C938E936C
:100BD000AEE4B0E0EEE4F0E0808191818D7F11968B
:100BE0009C938E93AEE4B0E0EEE4F0E080819181DE
:100BF000846011969C938E93AFE5B0E0EFE5F0E052
:100C0000808180688C93CF91DF910895DF93CF939B
:100C1000CDB7DEB7ECE4F0E08CED90E0918380831B
:100C2000CF91DF910895DF93CF9300D0CDB7DEB79A
:100C30009A838983EAE4F0E089819A8191838083B1
:100C40000F900F90CF91DF910895DF93CF93CDB7A1
:100C5000DEB783E067E040E00E943E00A9E5B0E037
:100C6000E9E5F0E0808180628C93AEE4B0E0EEE4F0
:100C7000F0E080819181806411969C938E93CF9156
:100C8000DF9108951F920F920FB60F9211242F93A8
:100C90003F934F935F936F937F938F939F93AF9304
:100CA000BF93EF93FF93DF93CF93CDB7DEB78091E0
:100CB0007B0090917C00019690937C0080937B0058
:100CC00080917B0090917C00853F910561F4E2E585
:100CD000F0E08CED808380E060E00E94720310926F
:100CE0007C0010927B00CF91DF91FF91EF91BF913B
:100CF000AF919F918F917F916F915F914F913F91B4
:100D00002F910F900FBE0F901F9018951F920F926A
:100D10000FB60F9211242F933F934F935F936F93CE
:100D20007F938F939F93AF93BF93EF93FF93DF9343
:100D3000CF93CDB7DEB780917D0090917E00019674
:100D400090937E0080937D0080917D0090917E0045
:100D500023E18838920741F480E060E00E9472034A
:100D600010927E0010927D00CF91DF91FF91EF9164
:100D7000BF91AF919F918F917F916F915F914F91B3
:100D80003F912F910F900FBE0F901F9018951F92BB
:100D90000F920FB60F9211242F933F934F935F93AF
:100DA0006F937F938F939F93AF93BF93EF93FF9333
:100DB000DF93CF93CDB7DEB780917F009091800015
:100DC00001969093800080937F0080917F009091A6
:100DD0008000853F910561F4E4E4F0E08CED8083D0
:100DE00080E060E00E9472031092800010927F0009
:100DF000CF91DF91FF91EF91BF91AF919F918F9133
:100E00007F916F915F914F913F912F910F900FBE06
:100E10000F901F901895DF93CF93CDB7DEB78091D9
:100E200078008823D1F4E6E4F0E08081918190930A
:100E30008200809381001092770010927600AEE4D9
:100E4000B0E0EEE4F0E0808191818F7B11969C937D
:100E50008E9381E08093780053C080917800813038
:100E600059F5E6E4F0E0808191819C0140E050E09A
:100E70008091760090917700CC01A0E0B0E0DC0199
:100E800099278827820F931FA41FB51F8093830083
:100E900090938400A0938500B093860082E08093B5
:100EA0007800AEE4B0E0EEE4F0E08081918180640F
:100EB00011969C938E9324C080917800823001F526
:100EC000E6E4F0E0808191819C0140E050E0809177
:100ED000760090917700CC01A0E0B0E0DC0199278A
:100EE0008827820F931FA41FB51F809387009093BC
:100EF0008800A0938900B0938A0083E080937800F3
:100F0000CF91DF9108951F920F920FB60F92112487
:100F10008F939F93DF93CF93CDB7DEB78091760009
:100F20009091770001969093770080937600CF910F
:100F3000DF919F918F910F900FBE0F901F9018958A
:100F40001F920F920FB60F9211242F933F934F933E
:100F50005F936F937F938F939F93AF93BF93EF9321
:100F6000FF93DF93CF93CDB7DEB780E064E00E94BC
:100F70007203E0917900F0917A000995CF91DF91A9
:100F8000FF91EF91BF91AF919F918F917F916F9161
:100F90005F914F913F912F910F900FBE0F901F9037
:100FA0001895DF93CF93CDB7DEB780E060E00E9465
:100FB0007203CF91DF910895DF93CF93CDB7DEB762
:100FC00080E061E00E947203CF91DF910895DF938A
:100FD000CF93CDB7DEB780E062E00E947203CF917D
:100FE000DF910895DF93CF93CDB7DEB780E063E064
:100FF0000E947203CF91DF9108950F93DF93CF93F7
:10100000CDB7DEB780E061E00E94B8020E943104F3
:1010100021ED37E085E0B90140E021E007E00E94E2
:101020003E042CED37E081E0B90141E021E000E031
:101030000E943E0427EE37E08AE0B90142E021E059
:1010400002E00E943E0422EF37E085E0B90143E070
:1010500021E002E00E943E04FFCFAA1BBB1B51E12E
:1010600007C0AA1FBB1FA617B70710F0A61BB70B18
:10107000881F991F5A95A9F780959095BC01CD01BD
:061080000895F894FFCF73
:00000001FF
