:100000000C942A000C943C000C943C000C943C0092
:100010000C943C000C943C000C943C000C943C0070
:100020000C943C000C943C000C943C000C943C0060
:100030000C943E000C943C000C943C000C943C004E
:100040000C943C000C943C000C943C000C943C0040
:100050000C943C0011241FBECFE5D8E0DEBFCDBF1D
:1000600020E0A0E6B0E001C01D92A236B207E1F7A1
:100070000E947F000C948B000C9400001F920F9242
:100080000FB60F9211242F933F934F935F936F936B
:100090007F938F939F93AF93BF93EF93FF93E091E1
:1000A0006000F09161000995FF91EF91BF91AF91D0
:1000B0009F918F917F916F915F914F913F912F9180
:1000C0000F900FBE0F901F90189596B7946096BF33
:1000D000880F82B984EC86BF0895823020F086B7FD
:1000E000846C86BF03C086B7846886BF06B607FEE9
:1000F000FDCF83B1089506B607FEFDCF08958FEFBB
:1001000087BB81E40E9465000E947B0081E00E9421
:0A0110006D0088BBFFCFF894FFCF0D
:00000001FF
