S01200005350495F4D61737465722E737265635B
S11300000C942A000C9447000C9447000C9447006D
S11300100C9447000C9447000C9447000C94470040
S11300200C9447000C9447000C9447000C94470030
S11300300C9473020C9447000C9447000C944700F2
S11300400C9447000C9447000C9447000C94470010
S11300500C94470011241FBECFE5D8E0DEBFCDBF0E
S113006010E0A0E6B0E0E0E9F5E002C005900D92F2
S1130070A636B107D9F720E0A6E6B0E001C01D928C
S1130080A936B207E1F70E949A020C94C6020C94B6
S11300900000FC0182818130C9F58081813091F0BA
S11300A028F08230D9F0833029F1089581E090E07E
S11300B0018002C0880F991F0A94E2F79AB3892B32
S11300C08ABB089581E090E0018002C0880F991FE7
S11300D00A94E2F797B3892B87BB089581E090E0F7
S11300E0018002C0880F991F0A94E2F794B3892B08
S11300F084BB089581E090E0018002C0880F991FBD
S11301000A94E2F791B3892B81BB089581113CC015
S11301108081813099F028F08230E9F0833041F118
S1130120089581E090E0018002C0880F991F0A942D
S1130130E2F780959AB389238ABB089581E090E021
S1130140018002C0880F991F0A94E2F7809597B343
S1130150892387BB089581E090E0018002C0880F65
S1130160991F0A94E2F7809594B3892384BB089578
S113017081E090E0018002C0880F991F0A94E2F7A1
S1130180809591B3892381BB08954130A1F58130D5
S113019089F028F08230C9F0833011F1089581E0AC
S11301A090E002C0880F991F6A95E2F79BB3892BF0
S11301B08BBB089581E090E002C0880F991F6A9577
S11301C0E2F798B3892B88BB089581E090E002C0E0
S11301D0880F991F6A95E2F795B3892B85BB08951B
S11301E081E090E002C0880F991F6A95E2F792B30C
S11301F0892B82BB0895411137C0813091F028F0DA
S11302008230D9F0833029F1089581E090E002C072
S1130210880F991F6A95E2F780959BB389238BBB5E
S1130220089581E090E002C0880F991F6A95E2F773
S1130230809598B3892388BB089581E090E002C03B
S1130240880F991F6A95E2F7809595B3892385BB3A
S1130250089581E090E002C0880F991F6A95E2F743
S1130260809592B3892382BB08958FB780688FBF2E
S113027008958FB78F778FBF08950F931F93CF93F0
S1130280DF93CDB7DEB72C970FB6F894DEBF0FBE61
S1130290CDBF8C01FC01808181112CC0809166004E
S11302A080618093660081E08A8796E09B871C8644
S11302B08F8395E0988789878C8397E09D838E83CD
S11302C0898394E09A838B83CE010A960E94490025
S11302D0CE0104960E944900CE0107960E9449006F
S11302E0CE0101960E94490040E064E081E00E9452
S11302F0C5002DC0813009F0DBC08A8796E09B875A
S11303008C878F8395E0988719868C8397E09D83EB
S11303101E82898384E08A831B82809166008F7E9B
S113032080936600CE010A960E944900CE0104968D
S11303300E944900CE0107960E944900CE01019611
S11303400E94490041E064E081E00E94C500809180
S11303506600806480936600F8018481813051F4E2
S11303608EB18E7F8EB98091660081608D7F80937F
S1130370660050C0811109C08EB18E7F8EB9809104
S113038066008C7F8093660045C0823051F48EB144
S11303908E7F8EB98091660082608E7F8093660026
S11303A039C0833049F48EB18E7F8EB98091660056
S11303B08360809366002EC0853051F48EB18160D5
S11303C08EB98091660081608D7F8093660022C023
S11303D0843049F48EB181608EB9809166008C7F3F
S11303E08093660017C0863051F48EB181608EB957
S11303F08091660082608E7F809366000BC0883097
S113040009F058C08EB181608EB980916600836016
S113041080936600F8018281811106C08091660094
S1130420877F8093660008C0813009F045C08091C1
S11304306600886080936600F8018381811106C09C
S1130440809166008B7F8093660007C08130B1F590
S113045080916600846080936600F8018581811133
S113046006C08091660080628093660007C0813078
S113047039F5809166008F7D80936600F801818153
S1130480811108C0809166008068809366000E9494
S1130490350109C08130B1F4809166008F77809373
S11304A066000E943901809166008DB980E00BC01E
S11304B081E009C085E007C084E005C082E003C094
S11304C083E001C086E02C960FB6F894DEBF0FBE21
S11304D0CDBFDF91CF911F910F9108958FB9779B75
S11304E0FECF8FB108951F920F920FB60F92112471
S11304F02F933F934F935F936F937F938F939F9328
S1130500AF93BF93EF93FF93E0916700F09168007E
S11305100995FF91EF91BF91AF919F918F917F9139
S11305206F915F914F913F912F910F900FBE0F905C
S11305301F901895CF93DF93CDB7DEB729970FB6E9
S1130540F894DEBF0FBECDBF8FEF84BB86E0E0E63C
S1130550F0E0DE01119601900D928A95E1F71F8279
S113056084E0888781E08987CE0107960E9449004C
S1130570CE0101960E943D01811104C041E064E076
S11305800E94C5008BE60E946E02FFCFF894FFCF55
S10905900001000101005E
S9030000FC
