:100000000C942A000C9447000C9447000C94470071
:100010000C9447000C9447000C9447000C94470044
:100020000C9447000C9447000C9447000C94470034
:100030000C9473020C9447000C9447000C944700F6
:100040000C9447000C9447000C9447000C94470014
:100050000C94470011241FBECFE5D8E0DEBFCDBF12
:1000600010E0A0E6B0E0E2E7F5E002C005900D92F6
:10007000AC36B107D9F720E0ACE6B0E001C01D9284
:10008000AF36B207E1F70E949A020C94B7020C94C3
:100090000000FC0182818130C9F58081813091F0BE
:1000A00028F08230D9F0833029F1089581E090E082
:1000B000018002C0880F991F0A94E2F79AB3892B36
:1000C0008ABB089581E090E0018002C0880F991FEB
:1000D0000A94E2F797B3892B87BB089581E090E0FB
:1000E000018002C0880F991F0A94E2F794B3892B0C
:1000F00084BB089581E090E0018002C0880F991FC1
:100100000A94E2F791B3892B81BB089581113CC019
:100110008081813099F028F08230E9F0833041F11C
:10012000089581E090E0018002C0880F991F0A9431
:10013000E2F780959AB389238ABB089581E090E025
:10014000018002C0880F991F0A94E2F7809597B347
:10015000892387BB089581E090E0018002C0880F69
:10016000991F0A94E2F7809594B3892384BB08957C
:1001700081E090E0018002C0880F991F0A94E2F7A5
:10018000809591B3892381BB08954130A1F58130D9
:1001900089F028F08230C9F0833011F1089581E0B0
:1001A00090E002C0880F991F6A95E2F79BB3892BF4
:1001B0008BBB089581E090E002C0880F991F6A957B
:1001C000E2F798B3892B88BB089581E090E002C0E4
:1001D000880F991F6A95E2F795B3892B85BB08951F
:1001E00081E090E002C0880F991F6A95E2F792B310
:1001F000892B82BB0895411137C0813091F028F0DE
:100200008230D9F0833029F1089581E090E002C076
:10021000880F991F6A95E2F780959BB389238BBB62
:10022000089581E090E002C0880F991F6A95E2F777
:10023000809598B3892388BB089581E090E002C03F
:10024000880F991F6A95E2F7809595B3892385BB3E
:10025000089581E090E002C0880F991F6A95E2F747
:10026000809592B3892382BB08958FB780688FBF32
:1002700008958FB78F778FBF08950F931F93CF93F4
:10028000DF93CDB7DEB72C970FB6F894DEBF0FBE65
:10029000CDBFFC01808591858130910551F48EB1EF
:1002A0008E7F8EB980916E0081608D7F80936E000D
:1002B00055C0009749F48EB18E7F8EB980916E0043
:1002C0008C7F80936E004AC08230910551F48EB1CC
:1002D0008E7F8EB980916E0082608E7F80936E00DB
:1002E0003DC08330910549F48EB18E7F8EB98091E7
:1002F0006E00836080936E0031C08530910551F4AB
:100300008EB181608EB980916E0081608D7F809307
:100310006E0024C08430910549F48EB181608EB99D
:1003200080916E008C7F80936E0018C0863091059E
:1003300051F48EB181608EB980916E0082608E7FA3
:1003400080936E000BC0089709F0B3C08EB1816036
:100350008EB980916E00836080936E008481958158
:10036000009731F480916E00877F80936E0008C003
:10037000019709F0A0C080916E00886080936E00A4
:1003800086819781009731F480916E008B7F8093F6
:100390006E0008C0019709F090C080916E008460E3
:1003A00080936E0082859385009731F480916E0072
:1003B000806280936E0008C0019709F080C0809130
:1003C0006E008F7D80936E008F01828193810097F4
:1003D00041F480916E00806880936E000E94350128
:1003E0000AC0019709F06DC080916E008F778093ED
:1003F0006E000E943901F80180819181009721F5FA
:1004000081E08F8395E0988789878C8397E09D832F
:100410008E83898394E09A838B8380916E008061C0
:1004200080936E00CE0104960E944900CE0107968B
:100430000E944900CE0101960E94490040E064E01C
:1004400081E00E94C5002DC00197E9F581E08A870F
:1004500096E09B878C878F8395E0988719868C839D
:1004600097E09D831E82898384E08A831B8280912A
:100470006E008F7E80936E00CE010A960E94490026
:10048000CE0104960E944900CE0107960E944900C1
:10049000CE0101960E94490041E064E081E00E94A3
:1004A000C50080916E00806480936E008DB980E0FD
:1004B0000BC085E009C084E007C082E005C083E08E
:1004C00003C086E001C081E02C960FB6F894DEBF31
:1004D0000FBECDBFDF91CF911F910F910895779BF4
:1004E000FECF8FB108951F920F920FB60F92112475
:1004F0002F933F934F935F936F937F938F939F932C
:10050000AF93BF93EF93FF93E0916C00F0916D0078
:100510000995FF91EF91BF91AF919F918F917F913D
:100520006F915F914F913F912F910F900FBE0F9060
:100530001F901895CF93DF93CDB7DEB72C970FB6EA
:10054000F894DEBF0FBECDBF8FEF84BB8CE0E0E63A
:10055000F0E0DE01119601900D928A95E1F7CE014F
:1005600001960E943D010E946F0285BBFFCFF89467
:02057000FFCFBB
:0C05720001000100000001000100000079
:00000001FF
