S01200004932435F4D61737465722E7372656389
S11300000C942A000C9447000C9447000C9447006D
S11300100C9447000C9447000C9447000C94470040
S11300200C9447000C9447000C9447000C94470030
S11300300C9449000C9447000C9447000C9447001E
S11300400C9447000C9447000C9447000C94470010
S11300500C94470011241FBECFE5D8E0DEBFCDBF0E
S113006010E0A0E6B0E0E6EFF1E002C005900D92EA
S1130070A636B107D9F720E0A6E6B0E001C01D928C
S1130080A836B207E1F70E94D9000C94F9000C9449
S113009000001F920F920FB60F9211242F933F93DB
S11300A04F935F936F937F938F939F93AF93BF937C
S11300B0EF93FF93E0916600F09167000995FF913B
S11300C0EF91BF91AF919F918F917F916F915F91CC
S11300D04F913F912F910F900FBE0F901F90189545
S11300E0FC018481811107C081B18E7F81B981B106
S11300F08D7F81B91AC0813039F481B1816081B9B1
S113010081B18D7F81B911C0823039F481B18E7F84
S113011081B981B1826081B908C08330A9F481B109
S1130120816081B981B1826081B98281811104C009
S113013086B7816086BF05C0813041F486B78E7F63
S113014086BF138282E0089580E0089581E00895D7
S113015086B7846A86BF06B607FEFDCF0895880F6A
S113016083B9613051F483B1816083B986B78468FF
S113017086BF06B607FEFDCF089583B18E7F83B98F
S113018086B7846886BF06B607FEFDCF089596B786
S1130190977096BF83B986B7846886BF06B607FE94
S11301A0FDCF089586B7846986BF06B604FCFDCFEB
S11301B00895CF93DF9300D000D01F92CDB7DEB760
S11301C085E0E0E6F0E0DE01119601900D928A955B
S11301D0E1F7CE0101960E9470000E94A80060E041
S11301E081E40E94AF0081E40E94C7000E94D20013
S10901F0FFCFF894FFCFDD
S10901F6200001000000DE
S9030000FC
