:100000000C942A000C9447000C9447000C94470071
:100010000C9447000C944A0C0C9447000C94470035
:100020000C9447000C9447000C9447000C94060C69
:100030000C9447000C9447000C9447000C94470024
:100040000C9447000C9447000C9447000C94470014
:100050000C94470011241FBECFE5D8E0DEBFCDBF12
:1000600010E0A0E6B0E0EAE9FAE102C005900D92E6
:10007000A037B107D9F710E0A0E7B0E001C01D92AA
:10008000A438B107E1F70E94A40C0C944B0D0C941A
:100090000000DF93CF9300D000D000D0CDB7DEB703
:1000A0009A838983E981FA818281813009F07AC05B
:1000B000E981FA818081282F30E03E832D838D8174
:1000C0009E818130910561F12D813E812230310583
:1000D0002CF48D819E81009769F0E7C02D813E81CF
:1000E0002230310599F18D819E818330910509F48B
:1000F00043C0DBC0AAE3B0E0EAE3F0E08081482F30
:10010000E981FA818181282F30E081E090E0022EA0
:1001100002C0880F991F0A94E2F7842B8C93C5C004
:10012000A7E3B0E0E7E3F0E08081482FE981FA81BE
:100130008181282F30E081E090E0022E02C0880FFC
:10014000991F0A94E2F7842B8C93AFC0A4E3B0E02C
:10015000E4E3F0E08081482FE981FA818181282F52
:1001600030E081E090E0022E02C0880F991F0A94CF
:10017000E2F7842B8C9399C0A1E3B0E0E1E3F0E0D7
:100180008081482FE981FA818181282F30E081E048
:1001900090E0022E02C0880F991F0A94E2F7842B88
:1001A0008C9383C0E981FA818281882309F07DC024
:1001B000E981FA818081282F30E03C832B838B8179
:1001C0009C818130910569F12B813C812230310580
:1001D0002CF48B819C81009769F067C02B813C8156
:1001E00022303105A9F18B819C818330910509F47E
:1001F00046C05BC0AAE3B0E0EAE3F0E08081482FAC
:10020000E981FA818181282F30E081E090E0022E9F
:1002100002C0880F991F0A94E2F7809584238C937B
:1002200044C0A7E3B0E0E7E3F0E08081482FE98134
:10023000FA818181282F30E081E090E0022E02C017
:10024000880F991F0A94E2F7809584238C932DC020
:10025000A4E3B0E0E4E3F0E08081482FE981FA8193
:100260008181282F30E081E090E0022E02C0880FCB
:10027000991F0A94E2F7809584238C9316C0A1E31A
:10028000B0E0E1E3F0E08081482FE981FA818181EB
:10029000282F30E081E090E0022E02C0880F991FE5
:1002A0000A94E2F7809584238C9326960FB6F894EF
:1002B000DEBF0FBECDBFCF91DF910895DF93CF9307
:1002C000CDB7DEB727970FB6F894DEBF0FBECDBF10
:1002D00089836A834B838B81813009F06FC0898168
:1002E000282F30E03F832E838E819F8181309105BE
:1002F00049F12E813F81223031052CF48E819F817E
:10030000009761F0D2C02E813F812230310571F11A
:100310008E819F8183309105E9F1C7C0ABE3B0E0E6
:10032000EBE3F0E08081482F8A81282F30E081E0E4
:1003300090E0022E02C0880F991F0A94E2F7842BE6
:100340008C93B3C0A8E3B0E0E8E3F0E08081482FED
:100350008A81282F30E081E090E0022E02C0880FD1
:10036000991F0A94E2F7842B8C939FC0A5E3B0E019
:10037000E5E3F0E08081482F8A81282F30E081E09A
:1003800090E0022E02C0880F991F0A94E2F7842B96
:100390008C938BC0A2E3B0E0E2E3F0E08081482FD1
:1003A0008A81282F30E081E090E0022E02C0880F81
:1003B000991F0A94E2F7842B8C9377C08B81882352
:1003C00009F073C08981282F30E03D832C838C8114
:1003D0009D818130910559F12C813D81223031057B
:1003E0002CF48C819D81009769F05FC02C813D8148
:1003F0002230310589F18C819D818330910509F48A
:1004000040C053C0ABE3B0E0EBE3F0E08081482FA5
:100410008A81282F30E081E090E0022E02C0880F10
:10042000991F0A94E2F7809584238C933EC0A8E339
:10043000B0E0E8E3F0E08081482F8A81282F30E0A7
:1004400081E090E0022E02C0880F991F0A94E2F723
:10045000809584238C9329C0A5E3B0E0E5E3F0E028
:100460008081482F8A81282F30E081E090E0022EA1
:1004700002C0880F991F0A94E2F7809584238C9319
:1004800014C0A2E3B0E0E2E3F0E08081482F8A816B
:10049000282F30E081E090E0022E02C0880F991FE3
:1004A0000A94E2F7809584238C9327960FB6F894EC
:1004B000DEBF0FBECDBFCF91DF910895DF93CF9305
:1004C00000D000D00F92CDB7DEB78A836B8319823C
:1004D0008A81282F30E03D832C834C815D8141301F
:1004E000510541F18C819D818230910534F42C813C
:1004F0003D812115310561F052C04C815D81423052
:10050000510551F18C819D8183309105B9F147C02E
:10051000E9E3F0E08081282F30E08B81882F90E0A4
:10052000A90102C0559547958A95E2F7CA018170E5
:10053000898335C0E6E3F0E08081282F30E08B81AD
:10054000882F90E0A90102C0559547958A95E2F75A
:10055000CA018170898323C0E3E3F0E08081282F02
:1005600030E08B81882F90E0A90102C05595479516
:100570008A95E2F7CA018170898311C0E0E3F0E057
:100580008081282F30E08B81882F90E0A90102C064
:10059000559547958A95E2F7CA01817089838981CB
:1005A0000F900F900F900F900F90CF91DF910895C3
:1005B000DF93CF9300D000D0CDB7DEB789836A83B5
:1005C0008981282F30E03C832B838B819C81813073
:1005D000910549F12B813C81223031052CF48B812E
:1005E0009C81009761F05AC02B813C8122303105FB
:1005F00071F18B819C8183309105E9F14FC0ABE3B0
:10060000B0E0EBE3F0E08081482F8A81282F30E0D2
:1006100081E090E0022E02C0880F991F0A94E2F751
:1006200084278C933BC0A8E3B0E0E8E3F0E080814E
:10063000482F8A81282F30E081E090E0022E02C00E
:10064000880F991F0A94E2F784278C9327C0A5E3AB
:10065000B0E0E5E3F0E08081482F8A81282F30E088
:1006600081E090E0022E02C0880F991F0A94E2F701
:1006700084278C9313C0A2E3B0E0E2E3F0E0808132
:10068000482F8A81282F30E081E090E0022E02C0BE
:10069000880F991F0A94E2F784278C930F900F908C
:1006A0000F900F90CF91DF910895DF93CF9300D0FB
:1006B000CDB7DEB79A838983E981FA818081882367
:1006C00009F0A8C1E981FA818181882379F4A3E541
:1006D000B0E0E3E5F0E080818F7B8C93A3E5B0E0B0
:1006E000E3E5F0E08081877F8C93ACC0E981FA81FB
:1006F0008181813089F5A3E5B0E0E3E5F0E0808118
:100700008F7B8C93A3E5B0E0E3E5F0E08081886027
:100710008C93ECE5F0E08CED8083E981FA818481B3
:10072000882341F4A9E5B0E0E9E5F0E0808182604A
:100730008C9303C081E080937500A3E5B0E0E3E50E
:10074000F0E080818F7D8C93A3E5B0E0E3E5F0E0FD
:10075000808180618C9376C0E981FA8181818230C9
:10076000B9F5A3E5B0E0E3E5F0E0808180648C9327
:10077000A3E5B0E0E3E5F0E08081877F8C93E98139
:10078000FA818381813079F4A3E5B0E0E3E5F0E01C
:10079000808180628C93A3E5B0E0E3E5F0E08081A6
:1007A0008F7E8C934FC0E981FA818381882309F081
:1007B00049C0A3E5B0E0E3E5F0E0808180628C937E
:1007C000A3E5B0E0E3E5F0E0808180618C933AC07E
:1007D000E981FA8181818330A9F5A3E5B0E0E3E501
:1007E000F0E0808180648C93A3E5B0E0E3E5F0E085
:1007F000808188608C93E981FA818381813079F4EA
:10080000A3E5B0E0E3E5F0E0808180628C93A3E5AE
:10081000B0E0E3E5F0E080818F7E8C9313C0E98146
:10082000FA818381882371F4A3E5B0E0E3E5F0E089
:10083000808180628C93A3E5B0E0E3E5F0E0808105
:1008400080618C93E981FA8182818823B1F4A3E5E8
:10085000B0E0E3E5F0E080818E7F8C93A3E5B0E02B
:10086000E3E5F0E080818D7F8C93A3E5B0E0E3E5E4
:10087000F0E080818B7F8C93BCC0E981FA8182811A
:100880008130B1F4A3E5B0E0E3E5F0E08081816080
:100890008C93A3E5B0E0E3E5F0E080818D7F8C935D
:1008A000A3E5B0E0E3E5F0E080818B7F8C93A1C00D
:1008B000E981FA8182818230B1F4A3E5B0E0E3E519
:1008C000F0E080818E7F8C93A3E5B0E0E3E5F0E07B
:1008D000808182608C93A3E5B0E0E3E5F0E0808165
:1008E0008B7F8C9386C0E981FA8182818330B1F459
:1008F000A3E5B0E0E3E5F0E0808181608C93A3E5BF
:10090000B0E0E3E5F0E0808182608C93A3E5B0E0A5
:10091000E3E5F0E080818B7F8C936BC0E981FA8105
:1009200082818430B1F4A3E5B0E0E3E5F0E08081BA
:100930008E7F8C93A3E5B0E0E3E5F0E080818D7FCE
:100940008C93A3E5B0E0E3E5F0E0808184608C93D4
:1009500050C0E981FA8182818530B1F4A3E5B0E02D
:10096000E3E5F0E0808181608C93A3E5B0E0E3E50E
:10097000F0E080818D7F8C93A3E5B0E0E3E5F0E0CB
:10098000808184608C9335C0E981FA8182818630D0
:10099000B1F4A3E5B0E0E3E5F0E080818E7F8C93D5
:1009A000A3E5B0E0E3E5F0E0808182608C93A3E50D
:1009B000B0E0E3E5F0E0808184608C931AC0E981C7
:1009C000FA8182818730A9F4A3E5B0E0E3E5F0E0A5
:1009D000808181608C93A3E5B0E0E3E5F0E0808165
:1009E00082608C93A3E5B0E0E3E5F0E08081846071
:1009F0008C93E981FA818481882341F4A9E5B0E0F0
:100A0000E9E5F0E0808181608C93D2C581E080933C
:100A10007400CEC5E981FA818081813009F01FC45C
:100A2000E981FA818181882349F5AEE4B0E0EEE402
:100A3000F0E0808191819E7F11969C938E93AEE42D
:100A4000B0E0EEE4F0E0808191819D7F11969C936F
:100A50008E93AEE4B0E0EEE4F0E080819181877F98
:100A600011969C938E93AEE4B0E0EEE4F0E08081CA
:100A700091818F7E11969C938E93C1C2E981FA81F8
:100A80008181823049F5AEE4B0E0EEE4F0E08081AF
:100A90009181916011969C938E93AEE4B0E0EEE468
:100AA000F0E0808191819D7F11969C938E93AEE4BE
:100AB000B0E0EEE4F0E080819181877F11969C9315
:100AC0008E93AEE4B0E0EEE4F0E0808191818F7E21
:100AD00011969C938E9393C2E981FA818181833030
:100AE00049F5AEE4B0E0EEE4F0E0808191819E7FD4
:100AF00011969C938E93AEE4B0E0EEE4F0E080813A
:100B00009181926011969C938E93AEE4B0E0EEE4F6
:100B1000F0E080819181877F11969C938E93AEE463
:100B2000B0E0EEE4F0E0808191818F7E11969C939D
:100B30008E9365C2E981FA818181843049F5AEE402
:100B4000B0E0EEE4F0E080819181916011969C9399
:100B50008E93AEE4B0E0EEE4F0E0808191819260AB
:100B600011969C938E93AEE4B0E0EEE4F0E08081C9
:100B70009181877F11969C938E93AEE4B0E0EEE472
:100B8000F0E0808191818F7E11969C938E9337C285
:100B9000E981FA8181818530C9F5AEE4B0E0EEE407
:100BA000F0E0808191819E7F11969C938E93AEE4BC
:100BB000B0E0EEE4F0E0808191819D7F11969C93FE
:100BC0008E93AEE4B0E0EEE4F0E080819181886045
:100BD00011969C938E93AEE4B0E0EEE4F0E0808159
:100BE00091818F7E11969C938E93E981FA81848105
:100BF000882341F4A9E5B0E0E9E5F0E08081806177
:100C00008C93FDC181E080937700F9C1E981FA817D
:100C10008181863049F5AEE4B0E0EEE4F0E0808119
:100C20009181916011969C938E93AEE4B0E0EEE4D6
:100C3000F0E0808191819D7F11969C938E93AEE42C
:100C4000B0E0EEE4F0E080819181886011969C93A1
:100C50008E93AEE4B0E0EEE4F0E0808191818F7E8F
:100C600011969C938E93CBC1E981FA818181873063
:100C700049F5AEE4B0E0EEE4F0E0808191819E7F42
:100C800011969C938E93AEE4B0E0EEE4F0E08081A8
:100C90009181926011969C938E93AEE4B0E0EEE465
:100CA000F0E080819181886011969C938E93AEE4F0
:100CB000B0E0EEE4F0E0808191818F7E11969C930C
:100CC0008E939DC1E981FA818181883049F5AEE436
:100CD000B0E0EEE4F0E080819181916011969C9308
:100CE0008E93AEE4B0E0EEE4F0E08081918192601A
:100CF00011969C938E93AEE4B0E0EEE4F0E0808138
:100D00009181886011969C938E93AEE4B0E0EEE4FE
:100D1000F0E0808191818F7E11969C938E936FC1BC
:100D2000E981FA818181893049F5AEE4B0E0EEE4F1
:100D3000F0E0808191819E7F11969C938E93AEE42A
:100D4000B0E0EEE4F0E0808191819D7F11969C936C
:100D50008E93AEE4B0E0EEE4F0E080819181877F95
:100D600011969C938E93AEE4B0E0EEE4F0E08081C7
:100D70009181806111969C938E9341C1E981FA81A2
:100D800081818A3049F5AEE4B0E0EEE4F0E08081A4
:100D90009181916011969C938E93AEE4B0E0EEE465
:100DA000F0E0808191819D7F11969C938E93AEE4BB
:100DB000B0E0EEE4F0E080819181877F11969C9312
:100DC0008E93AEE4B0E0EEE4F0E08081918180614A
:100DD00011969C938E9313C1E981FA8181818B30A6
:100DE00049F5AEE4B0E0EEE4F0E0808191819E7FD1
:100DF00011969C938E93AEE4B0E0EEE4F0E0808137
:100E00009181926011969C938E93AEE4B0E0EEE4F3
:100E1000F0E080819181877F11969C938E93AEE460
:100E2000B0E0EEE4F0E080819181806111969C93C6
:100E30008E93E5C0E981FA8181818C3049F5AEE479
:100E4000B0E0EEE4F0E080819181916011969C9396
:100E50008E93AEE4B0E0EEE4F0E0808191819260A8
:100E600011969C938E93AEE4B0E0EEE4F0E08081C6
:100E70009181877F11969C938E93AEE4B0E0EEE46F
:100E8000F0E080819181806111969C938E93B7C030
:100E9000E981FA8181818D3049F5AEE4B0E0EEE47C
:100EA000F0E0808191819E7F11969C938E93AEE4B9
:100EB000B0E0EEE4F0E0808191819D7F11969C93FB
:100EC0008E93AEE4B0E0EEE4F0E080819181886042
:100ED00011969C938E93AEE4B0E0EEE4F0E0808156
:100EE0009181806111969C938E9389C0E981FA81EA
:100EF00081818E3049F5AEE4B0E0EEE4F0E080812F
:100F00009181916011969C938E93AEE4B0E0EEE4F3
:100F1000F0E0808191819D7F11969C938E93AEE449
:100F2000B0E0EEE4F0E080819181886011969C93BE
:100F30008E93AEE4B0E0EEE4F0E0808191818061D8
:100F400011969C938E935BC0E981FA8181818F30E9
:100F500049F5AEE4B0E0EEE4F0E0808191819E7F5F
:100F600011969C938E93AEE4B0E0EEE4F0E08081C5
:100F70009181926011969C938E93AEE4B0E0EEE482
:100F8000F0E080819181886011969C938E93AEE40D
:100F9000B0E0EEE4F0E080819181806111969C9355
:100FA0008E932DC0E981FA818181803141F5AEE4D3
:100FB000B0E0EEE4F0E080819181916011969C9325
:100FC0008E93AEE4B0E0EEE4F0E080819181926037
:100FD00011969C938E93AEE4B0E0EEE4F0E0808155
:100FE0009181886011969C938E93AEE4B0E0EEE41C
:100FF000F0E080819181806111969C938E93E981CC
:10100000FA8182818823F9F4AEE4B0E0EEE4F0E006
:10101000808191818E7F11969C938E93AEE4B0E097
:10102000EEE4F0E0808191818D7F11969C938E9308
:10103000AEE4B0E0EEE4F0E0808191818B7F119628
:101040009C938E93FBC0E981FA8182818130F9F40F
:10105000AEE4B0E0EEE4F0E0808191818160119631
:101060009C938E93AEE4B0E0EEE4F0E08081918159
:101070008D7F11969C938E93AEE4B0E0EEE4F0E0A9
:10108000808191818B7F11969C938E93D7C0E9814B
:10109000FA8182818230F9F4AEE4B0E0EEE4F0E06F
:1010A000808191818E7F11969C938E93AEE4B0E007
:1010B000EEE4F0E080819181826011969C938E93A2
:1010C000AEE4B0E0EEE4F0E0808191818B7F119698
:1010D0009C938E93B3C0E981FA8182818330F9F4C5
:1010E000AEE4B0E0EEE4F0E08081918181601196A1
:1010F0009C938E93AEE4B0E0EEE4F0E080819181C9
:10110000826011969C938E93AEE4B0E0EEE4F0E042
:10111000808191818B7F11969C938E938FC0E98102
:10112000FA8182818430F9F4AEE4B0E0EEE4F0E0DC
:10113000808191818E7F11969C938E93AEE4B0E076
:10114000EEE4F0E0808191818D7F11969C938E93E7
:10115000AEE4B0E0EEE4F0E080819181846011962D
:101160009C938E936BC0E981FA8182818530F9F47A
:10117000AEE4B0E0EEE4F0E0808191818160119610
:101180009C938E93AEE4B0E0EEE4F0E08081918138
:101190008D7F11969C938E93AEE4B0E0EEE4F0E088
:1011A00080819181846011969C938E9347C0E981E0
:1011B000FA8182818630F9F4AEE4B0E0EEE4F0E04A
:1011C000808191818E7F11969C938E93AEE4B0E0E6
:1011D000EEE4F0E080819181826011969C938E9381
:1011E000AEE4B0E0EEE4F0E080819181846011969D
:1011F0009C938E9323C0E981FA8182818730F1F438
:10120000AEE4B0E0EEE4F0E080819181816011967F
:101210009C938E93AEE4B0E0EEE4F0E080819181A7
:10122000826011969C938E93AEE4B0E0EEE4F0E021
:1012300080819181846011969C938E93E981FA81DB
:101240008481882341F4A9E5B0E0E9E5F0E08081FC
:1012500084608C93ADC181E080937600A9C1E9815F
:10126000FA818081823009F0A3C1E981FA8181810C
:10127000882379F4A5E4B0E0E5E4F0E080818F7B99
:101280008C93A5E4B0E0E5E4F0E08081877F8C9367
:10129000A8C0E981FA818181813069F5A5E4B0E0D7
:1012A000E5E4F0E080818F7B8C93A5E4B0E0E5E499
:1012B000F0E0808188608C93E981FA8184818823C1
:1012C00041F4A9E5B0E0E9E5F0E0808180688C9325
:1012D00003C081E080937900A5E4B0E0E5E4F0E0AC
:1012E00080818F7D8C93A5E4B0E0E5E4F0E080811F
:1012F00080618C9376C0E981FA8181818230B9F571
:10130000A5E4B0E0E5E4F0E0808180648C93A5E49E
:10131000B0E0E5E4F0E08081877F8C93E981FA8199
:101320008381813079F4A5E4B0E0E5E4F0E08081E8
:1013300080628C93A5E4B0E0E5E4F0E080818F7EEC
:101340008C934FC0E981FA818381882309F049C0D9
:10135000A5E4B0E0E5E4F0E0808180628C93A5E450
:10136000B0E0E5E4F0E0808180618C933AC0E981EF
:10137000FA8181818330A9F5A5E4B0E0E5E4F0E0ED
:10138000808180648C93A5E4B0E0E5E4F0E08081A6
:1013900088608C93E981FA818381813079F4A5E4B6
:1013A000B0E0E5E4F0E0808180628C93A5E4B0E0F9
:1013B000E5E4F0E080818F7E8C9313C0E981FA81AF
:1013C0008381882371F4A5E4B0E0E5E4F0E0808156
:1013D00080628C93A5E4B0E0E5E4F0E08081806178
:1013E0008C93E981FA8182818823B1F4A5E4B0E08D
:1013F000E5E4F0E080818E7F8C93A5E4B0E0E5E445
:10140000F0E080818D7F8C93A5E4B0E0E5E4F0E02E
:1014100080818B7F8C93BCC0E981FA81828181308D
:10142000B1F4A5E4B0E0E5E4F0E0808181608C9364
:10143000A5E4B0E0E5E4F0E080818D7F8C93A5E445
:10144000B0E0E5E4F0E080818B7F8C93A1C0E9817E
:10145000FA8182818230B1F4A5E4B0E0E5E4F0E005
:1014600080818E7F8C93A5E4B0E0E5E4F0E080819C
:1014700082608C93A5E4B0E0E5E4F0E080818B7FAE
:101480008C9386C0E981FA8182818930B1F4A5E428
:10149000B0E0E5E4F0E0808181608C93A5E4B0E009
:1014A000E5E4F0E0808182608C93A5E4B0E0E5E4BF
:1014B000F0E080818B7F8C936BC0E981FA8182811F
:1014C0008330B1F4A5E4B0E0E5E4F0E080818E7F04
:1014D0008C93A5E4B0E0E5E4F0E080818D7F8C930F
:1014E000A5E4B0E0E5E4F0E0808184608C9350C036
:1014F000E981FA8182818830B1F4A5E4B0E0E5E4C5
:10150000F0E0808181608C93A5E4B0E0E5E4F0E058
:1015100080818D7F8C93A5E4B0E0E5E4F0E08081EC
:1015200084608C9335C0E981FA8182818430B1F482
:10153000A5E4B0E0E5E4F0E080818E7F8C93A5E443
:10154000B0E0E5E4F0E0808182608C93A5E4B0E057
:10155000E5E4F0E0808184608C931AC0E981FA812F
:1015600082818530A9F4A5E4B0E0E5E4F0E0808173
:1015700081608C93A5E4B0E0E5E4F0E080818260D6
:101580008C93A5E4B0E0E5E4F0E0808184608C9386
:10159000E981FA818481882341F4A9E5B0E0E9E595
:1015A000F0E0808180648C9303C081E080937800B8
:1015B000E981FA818481882339F4AFE5B0E0EFE571
:1015C000F0E0808180688C930F900F90CF91DF9135
:1015D0000895DF93CF9300D0CDB7DEB79A83898388
:1015E00089819A81009731F089819A819093710065
:1015F000809370000F900F90CF91DF910895DF934B
:10160000CF9300D0CDB7DEB79A83898389819A8141
:10161000009731F089819A819093730080937200D2
:101620000F900F90CF91DF910895DF93CF9300D06B
:1016300000D0CDB7DEB79A8389837C836B83E98141
:10164000FA818081882329F4E2E5F0E08B818083B0
:1016500015C0E981FA818081813039F4ECE4F0E051
:101660008B819C819183808309C0E981FA8180818B
:10167000823021F4E4E4F0E08B8180830F900F90BE
:101680000F900F90CF91DF910895DF93CF9300D00B
:1016900000D0CDB7DEB79A8389837C836B83E981E1
:1016A000FA818081882329F4ECE5F0E08B81808346
:1016B00015C0E981FA818081813039F4EAE4F0E0F3
:1016C0008B819C819183808309C0E981FA8180812B
:1016D000823021F4E3E4F0E08B8180830F900F905F
:1016E0000F900F90CF91DF910895DF93CF93CDB7F7
:1016F000DEB7E3E5F0E01082CF91DF910895DF934C
:10170000CF93CDB7DEB780917400813061F58091C1
:101710007A0090917B00853F910561F4E2E5F0E06D
:101720001082E0917000F0917100099510927B0099
:1017300010927A00E8E5F0E08081882F90E08170D7
:1017400090700097B9F380917A0090917B00019698
:1017500090937B0080937A00A8E5B0E0E8E5F0E0A4
:10176000808181608C93CF91DF910895DF93CF9337
:10177000CDB7DEB780917800813009F044C0809108
:101780007C0090917D00A0917E00B0917F00853F0C
:101790009105A105B10581F4E4E4F0E01082E09147
:1017A0007200F0917300099510927C0010927D00F8
:1017B00010927E0010927F00E8E5F0E08081829533
:1017C000869586958370882F90E081709070009741
:1017D00099F380917C0090917D00A0917E00B09162
:1017E0007F000196A11DB11D80937C0090937D0028
:1017F000A0937E00B0937F00A8E5B0E0E8E5F0E0BC
:10180000808180648C93CF91DF9108951F920F9215
:101810000FB60F9211242F933F934F935F936F93C3
:101820007F938F939F93AF93BF93EF93FF93DF9338
:10183000CF93CDB7DEB78091800090918100019663
:10184000909381008093800080918000909181002E
:10185000853F910561F4E2E5F0E01082E0917000CF
:10186000F091710009951092810010928000CF9143
:10187000DF91FF91EF91BF91AF919F918F917F91F8
:101880006F915F914F913F912F910F900FBE0F90ED
:101890001F9018951F920F920FB60F9211242F933D
:1018A0003F934F935F936F937F938F939F93AF93E8
:1018B000BF93EF93FF93DF93CF93CDB7DEB78091C4
:1018C0008200909183000196909383008093820020
:1018D0008091820090918300853F910561F4E2E55B
:1018E000F0E01082E0917200F0917300099510927F
:1018F000830010928200CF91DF91FF91EF91BF9111
:10190000AF919F918F917F916F915F914F913F9197
:101910002F910F900FBE0F901F901895DF93CF93CC
:10192000CDB7DEB780E060E00E94D802CF91DF91B2
:101930000895DF93CF93CDB7DEB781E060E00E94DA
:10194000D802CF91DF910895DF93CF93CDB7DEB763
:10195000A4970FB6F894DEBF0FBECDBFCE0101969F
:101960009A8B898BEBE6F0E0FC8BEB8BF5E0FD8B43
:10197000EB89FC8900808B899C8901969C8B8B8BE1
:10198000E989FA89008289899A8901969A8B898BDB
:101990009D8991509D8BED89EE2351F7CE010696DE
:1019A0009F8B8E8BE6E6F0E0F98FE88FF5E0FA8FFB
:1019B000E88DF98D0080888D998D0196998F888F9B
:1019C000EE89FF8900828E899F8901969F8B8E8B7D
:1019D0009A8D91509A8FEA8DEE2351F7CE010B9696
:1019E0009C8F8B8FE3E6F0E0FE8FED8FF3E0FF8FAF
:1019F000ED8DFE8D00808D8D9E8D01969E8F8D8F3D
:101A0000EB8DFC8D00828B8D9C8D01969C8F8B8F36
:101A10009F8D91509F8FEF8DEE2351F7CE010E9643
:101A200099A388A3E0E6F0E0FBA3EAA3F3E0FCA31C
:101A3000EAA1FBA100808AA19BA101969BA38AA396
:101A4000E8A1F9A1008288A199A1019699A388A390
:101A50009CA191509CA3ECA1EE2351F7CE010B96D3
:101A60000E944900CE010E960E944900CE010196C7
:101A70000E945503CE0106960E9455038EE89CE015
:101A80000E94E90A89E99CE00E94FF0A0E947F0BFC
:0A1A90000E94B60BFBCFF894FFCFC5
:101A9A00010001000001020004000100000400012D
:00000001FF
