S01100005350495F534C4156452E737265634D
S11300000C942A000C9447000C9447000C9447006D
S11300100C9447000C9447000C9447000C94470040
S11300200C9447000C9447000C9447000C94470030
S11300300C944A030C9447000C9447000C9447001A
S11300400C9447000C9447000C9447000C94470010
S11300500C94470011241FBECFE5D8E0DEBFCDBF0E
S113006010E0A0E6B0E0ECE5F7E002C005900D92E8
S1130070A237B107D9F720E0A2E7B0E001C01D9292
S1130080A537B207E1F70E9471030C94AC030C94FA
S11300900000FC0182818130C9F58081813091F0BA
S11300A028F08230D9F0833029F1089581E090E07E
S11300B0018002C0880F991F0A94E2F79AB3892B32
S11300C08ABB089581E090E0018002C0880F991FE7
S11300D00A94E2F797B3892B87BB089581E090E0F7
S11300E0018002C0880F991F0A94E2F794B3892B08
S11300F084BB089581E090E0018002C0880F991FBD
S11301000A94E2F791B3892B81BB089581113CC015
S11301108081813099F028F08230E9F0833041F118
S1130120089581E090E0018002C0880F991F0A942D
S1130130E2F780959AB389238ABB089581E090E021
S1130140018002C0880F991F0A94E2F7809597B343
S1130150892387BB089581E090E0018002C0880F65
S1130160991F0A94E2F7809594B3892384BB089578
S113017081E090E0018002C0880F991F0A94E2F7A1
S1130180809591B3892381BB08954130A1F58130D5
S113019089F028F08230C9F0833011F1089581E0AC
S11301A090E002C0880F991F6A95E2F79BB3892BF0
S11301B08BBB089581E090E002C0880F991F6A9577
S11301C0E2F798B3892B88BB089581E090E002C0E0
S11301D0880F991F6A95E2F795B3892B85BB08951B
S11301E081E090E002C0880F991F6A95E2F792B30C
S11301F0892B82BB0895411137C0813091F028F0DA
S11302008230D9F0833029F1089581E090E002C072
S1130210880F991F6A95E2F780959BB389238BBB5E
S1130220089581E090E002C0880F991F6A95E2F773
S1130230809598B3892388BB089581E090E002C03B
S1130240880F991F6A95E2F7809595B3892385BB3A
S1130250089581E090E002C0880F991F6A95E2F743
S1130260809592B3892382BB0895813089F028F068
S11302708230C9F0833011F1089581E090E002C02A
S1130280880F991F6A95E2F79BB389278BBB089562
S113029081E090E002C0880F991F6A95E2F798B355
S11302A0892788BB089581E090E002C0880F991FD8
S11302B06A95E2F795B3892785BB089581E090E0BC
S11302C002C0880F991F6A95E2F792B3892782BB0F
S11302D00895FC0181818F7780BD808189B98281F5
S11302E0853029F480E89AB19B7F9AB91BC0863087
S11302F029F482E89AB19B7F9AB914C0873029F413
S113030084E89AB19B7F9AB90DC0883029F486E8B5
S11303109AB19B7F9AB906C0893089F586E89AB16B
S113032094609AB99381911102C0877F03C0913080
S113033041F588609481911102C08F7C08C091308E
S113034019F48F7E806203C09230E9F48063958152
S1130350911104C09AB198609AB90EC0913021F4F9
S11303609AB190619AB908C0923079F49AB19860C0
S11303709AB99AB190619AB980BD80E0089581E0FC
S1130380089582E0089583E0089584E008955D9BD4
S1130390FECF8CB95E9902C085E0089586E0089589
S11303A00F931F93CF938C01C0E003C00E94C70139
S11303B0CF5FF801EC0FF11D80818111F7CF87E049
S11303C0CF911F910F9108958FB780688FBF0895C3
S11303D08FB78F778FBF08950F931F93CF93DF93BA
S11303E0CDB7DEB72C970FB6F894DEBF0FBECDBFE6
S11303F0FC01808591858130910551F48EB18E7F09
S11304008EB98091740081608D7F8093740055C093
S1130410009749F48EB18E7F8EB9809174008C7FE1
S1130420809374004AC08230910551F48EB18E7F5E
S11304308EB98091740082608E7F809374003DC079
S11304408330910549F48EB18E7F8EB9809174000A
S113045083608093740031C08530910551F48EB16E
S113046081608EB98091740081608D7F8093740067
S113047024C08430910549F48EB181608EB9809195
S113048074008C7F8093740018C08630910551F4F9
S11304908EB181608EB98091740082608E7F80936A
S11304A074000BC0089709F0B6C08EB181608EB994
S11304B08091740083608093740084819581009797
S11304C031F480917400877F8093740008C0019791
S11304D009F0A3C0809174008860809374008681C1
S11304E09781009731F4809174008B7F809374001E
S11304F008C0019709F093C08091740084608093D0
S1130500740082859385009731F480917400806231
S11305108093740008C0019709F083C0809174002F
S11305208F7D809374008F0182819381009741F4C1
S1130530809174008068809374000E94E4010AC072
S1130540019709F070C0809174008F7780937400D4
S11305500E94E801F80180819181009761F581E0B2
S11305608A8796E09B871C868F8395E09887898786
S11305708C8397E09D838E83898394E09A838B8315
S113058080917400806180937400CE010A960E9469
S11305904900CE0104960E944900CE0107960E94AC
S11305A04900CE0101960E94490040E064E081E0E8
S11305B00E94C50028C00197C1F581E08A8796E0B2
S11305C09B878C878F8395E0988719868C8397E027
S11305D09D831E82898384E08A831B8280917400B8
S11305E08F7E80937400CE010A960E944900CE014A
S11305F004960E944900CE0107960E944900CE014C
S113060001960E9449008091740080648093740074
S11306108DB980E00BC085E009C084E007C082E0AA
S113062005C083E003C086E001C081E02C960FB6CC
S1130630F894DEBF0FBECDBFDF91CF911F910F9114
S11306400895779BFECF8FB10895DF92EF92FF92CA
S11306500F931F93CF93DF937C01D62EC0E0D0E09D
S113066087010C0F1D1F0E942103F80180838D1543
S113067011F02196F5CFF801D0822196CE0DDF1D21
S11306801882C701DF91CF911F910F91FF90EF90D6
S1130690DF9008951F920F920FB60F9211242F939B
S11306A03F934F935F936F937F938F939F93AF93F6
S11306B0BF93EF93FF93E0917200F091730009955B
S11306C0FF91EF91BF91AF919F918F917F916F9126
S11306D05F914F913F912F910F900FBE0F901F90FC
S11306E01895CF93DF93CDB7DEB7C451D1400FB681
S11306F0F894DEBF0FBECDBF86E0E0E6F0E0DE0199
S1130700119601900D928A95E1F78CE0E6E6F0E00F
S1130710DE01179601900D928A95E1F71B8A1C8AD7
S113072081E08D8BCE0143960E944900CE01019653
S11307300E946901CE0107960E94EC016DE0CE0192
S113074046960E942503CE0146960E94D00160E0A1
S10F075080E00E943501F2CFF894FFCF46
S113075C330008000000010001000000010001004A
S105076C000087
S9030000FC
